{
  "contractName": "Ballot",
  "abi": [
    {
      "inputs": [
        {
          "internalType": "uint256",
          "name": "numProposals",
          "type": "uint256"
        }
      ],
      "stateMutability": "nonpayable",
      "type": "constructor"
    },
    {
      "inputs": [
        {
          "internalType": "address",
          "name": "voter",
          "type": "address"
        }
      ],
      "name": "register",
      "outputs": [],
      "stateMutability": "nonpayable",
      "type": "function"
    },
    {
      "inputs": [
        {
          "internalType": "uint256",
          "name": "toProposal",
          "type": "uint256"
        }
      ],
      "name": "vote",
      "outputs": [],
      "stateMutability": "nonpayable",
      "type": "function"
    },
    {
      "inputs": [],
      "name": "reqWinner",
      "outputs": [
        {
          "internalType": "uint256",
          "name": "winningProposal",
          "type": "uint256"
        }
      ],
      "stateMutability": "view",
      "type": "function"
    }
  ],
  "bytecode": "0x608060405234801561001057600080fd5b506040516108d03803806108d08339818101604052810190610032919061017e565b336000806101000a81548173ffffffffffffffffffffffffffffffffffffffff021916908373ffffffffffffffffffffffffffffffffffffffff1602179055506002600160008060009054906101000a900473ffffffffffffffffffffffffffffffffffffffff1673ffffffffffffffffffffffffffffffffffffffff1673ffffffffffffffffffffffffffffffffffffffff1681526020019081526020016000206000018190555060005b8181101561013c57600260405180602001604052806000815250908060018154018082558091505060019003906000526020600020016000909190919091506000820151816000015550508080610134906101da565b9150506100de565b5050610222565b600080fd5b6000819050919050565b61015b81610148565b811461016657600080fd5b50565b60008151905061017881610152565b92915050565b60006020828403121561019457610193610143565b5b60006101a284828501610169565b91505092915050565b7f4e487b7100000000000000000000000000000000000000000000000000000000600052601160045260246000fd5b60006101e582610148565b91507fffffffffffffffffffffffffffffffffffffffffffffffffffffffffffffffff8203610217576102166101ab565b5b600182019050919050565b61069f806102316000396000f3fe608060405234801561001057600080fd5b50600436106100415760003560e01c80630121b93f146100465780634420e48614610062578063508b30c91461007e575b600080fd5b610060600480360381019061005b91906103df565b61009c565b005b61007c6004803603810190610077919061046a565b610219565b005b610086610316565b60405161009391906104a6565b60405180910390f35b6000600160003373ffffffffffffffffffffffffffffffffffffffff1673ffffffffffffffffffffffffffffffffffffffff1681526020019081526020016000206000015411610121576040517f08c379a00000000000000000000000000000000000000000000000000000000081526004016101189061051e565b60405180910390fd5b6000600160003373ffffffffffffffffffffffffffffffffffffffff1673ffffffffffffffffffffffffffffffffffffffff168152602001908152602001600020604051806060016040529081600082015481526020016001820160009054906101000a900460ff1615151515815260200160028201548152505090508060200151156101ad57600080fd5b60028054905082106101be57600080fd5b6001816020019015159081151581525050818160400181815250508060000151600283815481106101f2576101f161053e565b5b90600052602060002001600001600082825461020e919061059c565b925050819055505050565b60008054906101000a900473ffffffffffffffffffffffffffffffffffffffff1673ffffffffffffffffffffffffffffffffffffffff163373ffffffffffffffffffffffffffffffffffffffff161461027157600080fd5b60018060008373ffffffffffffffffffffffffffffffffffffffff1673ffffffffffffffffffffffffffffffffffffffff168152602001908152602001600020600001819055506000600160008373ffffffffffffffffffffffffffffffffffffffff1673ffffffffffffffffffffffffffffffffffffffff16815260200190815260200160002060010160006101000a81548160ff02191690831515021790555050565b60008060005b60028054905081101561038d57816002828154811061033e5761033d61053e565b5b9060005260206000200160000154111561037a57600281815481106103665761036561053e565b5b906000526020600020016000015491508092505b8080610385906105f2565b91505061031c565b5060038110156103a05761039f61063a565b5b5090565b600080fd5b6000819050919050565b6103bc816103a9565b81146103c757600080fd5b50565b6000813590506103d9816103b3565b92915050565b6000602082840312156103f5576103f46103a4565b5b6000610403848285016103ca565b91505092915050565b600073ffffffffffffffffffffffffffffffffffffffff82169050919050565b60006104378261040c565b9050919050565b6104478161042c565b811461045257600080fd5b50565b6000813590506104648161043e565b92915050565b6000602082840312156104805761047f6103a4565b5b600061048e84828501610455565b91505092915050565b6104a0816103a9565b82525050565b60006020820190506104bb6000830184610497565b92915050565b600082825260208201905092915050565b7f4e6f742061205265676973746572656420566f74657200000000000000000000600082015250565b60006105086016836104c1565b9150610513826104d2565b602082019050919050565b60006020820190508181036000830152610537816104fb565b9050919050565b7f4e487b7100000000000000000000000000000000000000000000000000000000600052603260045260246000fd5b7f4e487b7100000000000000000000000000000000000000000000000000000000600052601160045260246000fd5b60006105a7826103a9565b91506105b2836103a9565b9250827fffffffffffffffffffffffffffffffffffffffffffffffffffffffffffffffff038211156105e7576105e661056d565b5b828201905092915050565b60006105fd826103a9565b91507fffffffffffffffffffffffffffffffffffffffffffffffffffffffffffffffff820361062f5761062e61056d565b5b600182019050919050565b7f4e487b7100000000000000000000000000000000000000000000000000000000600052600160045260246000fdfea264697066735822122030c05583bf52985201697c464f452fc286371e30b4240206bb3f31aa1a0b9e7864736f6c634300080d0033",
  "immutableReferences": {},
  "source": "// SPDX-License-Identifier: UNLICENSED\r\npragma solidity ^0.8.0;\r\n\r\ncontract Ballot {\r\n\r\n    struct Voter {\r\n        uint weight;\r\n        bool voted;\r\n        uint vote;\r\n    }\r\n\r\n    struct Proposal {\r\n        uint voteCount;\r\n    }\r\n\r\n    address chairperson;\r\n    mapping(address => Voter) voters;\r\n    Proposal[] proposals;\r\n\r\n    modifier onlyChair() {\r\n        require(msg.sender == chairperson);\r\n        _;\r\n    }\r\n\r\n    modifier validVoter() {\r\n        require(voters[msg.sender].weight > 0, \"Not a Registered Voter\");\r\n        _;\r\n    }\r\n\r\n    constructor (uint numProposals) {\r\n        chairperson = msg.sender;\r\n        voters[chairperson].weight = 2;\r\n        for (uint prop = 0; prop < numProposals; prop ++) {\r\n            proposals.push(Proposal(0));\r\n        }\r\n    }\r\n\r\n\r\n    function register(address voter) public onlyChair {\r\n        voters[voter].weight = 1;\r\n        voters[voter].voted = false;\r\n    }\r\n\r\n\r\n    function vote(uint toProposal) public validVoter{\r\n        Voter memory sender = voters[msg.sender];\r\n\r\n        require (!sender.voted);\r\n        require (toProposal < proposals.length);\r\n\r\n        sender.voted = true;\r\n        sender.vote = toProposal;\r\n        proposals[toProposal].voteCount += sender.weight;\r\n    }\r\n\r\n    function reqWinner() public view returns (uint winningProposal) {\r\n        winningProposal = 0;\r\n        uint winningVoteCount = 0;\r\n        for (uint prop = 0; prop < proposals.length; prop++) {\r\n            if (proposals[prop].voteCount > winningVoteCount) {\r\n                winningVoteCount = proposals[prop].voteCount;\r\n                winningProposal = prop;\r\n            }\r\n        }\r\n        assert(winningVoteCount>=3);\r\n    }\r\n}",
  "sourcePath": "E:\\workspace\\blockchain-in-action\\ch04\\Ballot-Dapp\\ballot-contract\\contracts\\Ballot.sol",
  "compiler": {
    "name": "solc",
    "version": "0.8.13+commit.abaa5c0e.Emscripten.clang"
  },
  "schemaVersion": "3.4.7",
  "updatedAt": "2022-04-11T03:16:32.144Z",
  "devdoc": {
    "kind": "dev",
    "methods": {},
    "version": 1
  },
  "userdoc": {
    "kind": "user",
    "methods": {},
    "version": 1
  }
}